{
  "_format": "hh-sol-artifact-1",
  "contractName": "BlogApp",
  "sourceName": "contracts/BlogApp.sol",
  "abi": [
    {
      "anonymous": false,
      "inputs": [
        {
          "indexed": false,
          "internalType": "uint256",
          "name": "id",
          "type": "uint256"
        },
        {
          "indexed": false,
          "internalType": "string",
          "name": "contentHash",
          "type": "string"
        },
        {
          "indexed": false,
          "internalType": "string",
          "name": "blogCoverHash",
          "type": "string"
        },
        {
          "indexed": false,
          "internalType": "string",
          "name": "title",
          "type": "string"
        },
        {
          "indexed": false,
          "internalType": "enum BlogApp.BlogCategory",
          "name": "category",
          "type": "uint8"
        },
        {
          "indexed": false,
          "internalType": "address payable",
          "name": "author",
          "type": "address"
        }
      ],
      "name": "BlogCreated",
      "type": "event"
    },
    {
      "anonymous": false,
      "inputs": [
        {
          "indexed": false,
          "internalType": "uint256",
          "name": "id",
          "type": "uint256"
        },
        {
          "indexed": false,
          "internalType": "string",
          "name": "title",
          "type": "string"
        },
        {
          "indexed": false,
          "internalType": "uint256",
          "name": "tipAmount",
          "type": "uint256"
        },
        {
          "indexed": false,
          "internalType": "address payable",
          "name": "author",
          "type": "address"
        }
      ],
      "name": "BlogTipped",
      "type": "event"
    },
    {
      "anonymous": false,
      "inputs": [
        {
          "indexed": false,
          "internalType": "uint256",
          "name": "blogId",
          "type": "uint256"
        },
        {
          "indexed": false,
          "internalType": "address",
          "name": "voter",
          "type": "address"
        },
        {
          "indexed": false,
          "internalType": "bool",
          "name": "approved",
          "type": "bool"
        }
      ],
      "name": "BlogVoted",
      "type": "event"
    },
    {
      "anonymous": false,
      "inputs": [
        {
          "indexed": false,
          "internalType": "uint256",
          "name": "blogId",
          "type": "uint256"
        },
        {
          "indexed": false,
          "internalType": "address",
          "name": "sender",
          "type": "address"
        },
        {
          "indexed": false,
          "internalType": "string",
          "name": "comment",
          "type": "string"
        }
      ],
      "name": "CommentAdded",
      "type": "event"
    },
    {
      "inputs": [
        {
          "internalType": "uint256",
          "name": "blogId",
          "type": "uint256"
        },
        {
          "internalType": "string",
          "name": "commentText",
          "type": "string"
        }
      ],
      "name": "addComment",
      "outputs": [],
      "stateMutability": "nonpayable",
      "type": "function"
    },
    {
      "inputs": [
        {
          "internalType": "uint256",
          "name": "",
          "type": "uint256"
        },
        {
          "internalType": "uint256",
          "name": "",
          "type": "uint256"
        }
      ],
      "name": "blogComments",
      "outputs": [
        {
          "internalType": "address payable",
          "name": "sender",
          "type": "address"
        },
        {
          "internalType": "uint256",
          "name": "timestamp",
          "type": "uint256"
        },
        {
          "internalType": "string",
          "name": "text",
          "type": "string"
        }
      ],
      "stateMutability": "view",
      "type": "function"
    },
    {
      "inputs": [],
      "name": "blogCount",
      "outputs": [
        {
          "internalType": "uint256",
          "name": "",
          "type": "uint256"
        }
      ],
      "stateMutability": "view",
      "type": "function"
    },
    {
      "inputs": [
        {
          "internalType": "uint256",
          "name": "",
          "type": "uint256"
        }
      ],
      "name": "blogs",
      "outputs": [
        {
          "internalType": "uint256",
          "name": "id",
          "type": "uint256"
        },
        {
          "internalType": "string",
          "name": "contentHash",
          "type": "string"
        },
        {
          "internalType": "string",
          "name": "blogCoverHash",
          "type": "string"
        },
        {
          "internalType": "uint256",
          "name": "tipAmount",
          "type": "uint256"
        },
        {
          "internalType": "enum BlogApp.BlogCategory",
          "name": "category",
          "type": "uint8"
        },
        {
          "internalType": "address payable",
          "name": "author",
          "type": "address"
        },
        {
          "internalType": "uint256",
          "name": "createdAt",
          "type": "uint256"
        },
        {
          "internalType": "uint256",
          "name": "approveVotes",
          "type": "uint256"
        },
        {
          "internalType": "uint256",
          "name": "rejectVotes",
          "type": "uint256"
        },
        {
          "internalType": "bool",
          "name": "isBlocked",
          "type": "bool"
        },
        {
          "internalType": "bool",
          "name": "isApproved",
          "type": "bool"
        }
      ],
      "stateMutability": "view",
      "type": "function"
    },
    {
      "inputs": [
        {
          "internalType": "address payable",
          "name": "pubkey",
          "type": "address"
        }
      ],
      "name": "checkUserExists",
      "outputs": [
        {
          "internalType": "bool",
          "name": "",
          "type": "bool"
        }
      ],
      "stateMutability": "view",
      "type": "function"
    },
    {
      "inputs": [
        {
          "internalType": "string",
          "name": "name",
          "type": "string"
        },
        {
          "internalType": "string",
          "name": "profileHash",
          "type": "string"
        },
        {
          "internalType": "enum BlogApp.BlogCategory[]",
          "name": "preferences",
          "type": "uint8[]"
        }
      ],
      "name": "createAccount",
      "outputs": [],
      "stateMutability": "nonpayable",
      "type": "function"
    },
    {
      "inputs": [
        {
          "internalType": "string",
          "name": "contentHash",
          "type": "string"
        },
        {
          "internalType": "string",
          "name": "blogCoverHash",
          "type": "string"
        },
        {
          "internalType": "string",
          "name": "title",
          "type": "string"
        },
        {
          "internalType": "enum BlogApp.BlogCategory",
          "name": "category",
          "type": "uint8"
        }
      ],
      "name": "createBlog",
      "outputs": [],
      "stateMutability": "nonpayable",
      "type": "function"
    },
    {
      "inputs": [
        {
          "internalType": "uint256",
          "name": "",
          "type": "uint256"
        }
      ],
      "name": "getAllUsers",
      "outputs": [
        {
          "internalType": "string",
          "name": "name",
          "type": "string"
        },
        {
          "internalType": "string",
          "name": "profileImageHashcode",
          "type": "string"
        },
        {
          "internalType": "address payable",
          "name": "accountAddress",
          "type": "address"
        }
      ],
      "stateMutability": "view",
      "type": "function"
    },
    {
      "inputs": [
        {
          "internalType": "uint256",
          "name": "blogId",
          "type": "uint256"
        }
      ],
      "name": "getComments",
      "outputs": [
        {
          "components": [
            {
              "internalType": "address payable",
              "name": "sender",
              "type": "address"
            },
            {
              "internalType": "uint256",
              "name": "timestamp",
              "type": "uint256"
            },
            {
              "internalType": "string",
              "name": "text",
              "type": "string"
            }
          ],
          "internalType": "struct BlogApp.Comment[]",
          "name": "",
          "type": "tuple[]"
        }
      ],
      "stateMutability": "view",
      "type": "function"
    },
    {
      "inputs": [
        {
          "internalType": "address",
          "name": "user",
          "type": "address"
        }
      ],
      "name": "getUserBlogs",
      "outputs": [
        {
          "components": [
            {
              "internalType": "uint256",
              "name": "id",
              "type": "uint256"
            },
            {
              "internalType": "string",
              "name": "contentHash",
              "type": "string"
            },
            {
              "internalType": "string",
              "name": "blogCoverHash",
              "type": "string"
            },
            {
              "internalType": "uint256",
              "name": "tipAmount",
              "type": "uint256"
            },
            {
              "internalType": "enum BlogApp.BlogCategory",
              "name": "category",
              "type": "uint8"
            },
            {
              "internalType": "address payable",
              "name": "author",
              "type": "address"
            },
            {
              "internalType": "uint256",
              "name": "createdAt",
              "type": "uint256"
            },
            {
              "internalType": "address[]",
              "name": "selectedUsers",
              "type": "address[]"
            },
            {
              "internalType": "uint256",
              "name": "approveVotes",
              "type": "uint256"
            },
            {
              "internalType": "uint256",
              "name": "rejectVotes",
              "type": "uint256"
            },
            {
              "internalType": "bool",
              "name": "isBlocked",
              "type": "bool"
            },
            {
              "internalType": "bool",
              "name": "isApproved",
              "type": "bool"
            }
          ],
          "internalType": "struct BlogApp.Blog[]",
          "name": "",
          "type": "tuple[]"
        },
        {
          "components": [
            {
              "internalType": "address payable",
              "name": "sender",
              "type": "address"
            },
            {
              "internalType": "uint256",
              "name": "timestamp",
              "type": "uint256"
            },
            {
              "internalType": "string",
              "name": "text",
              "type": "string"
            }
          ],
          "internalType": "struct BlogApp.Comment[][]",
          "name": "",
          "type": "tuple[][]"
        }
      ],
      "stateMutability": "view",
      "type": "function"
    },
    {
      "inputs": [
        {
          "internalType": "address payable",
          "name": "pubkey",
          "type": "address"
        }
      ],
      "name": "getUsername",
      "outputs": [
        {
          "internalType": "string",
          "name": "",
          "type": "string"
        }
      ],
      "stateMutability": "view",
      "type": "function"
    },
    {
      "inputs": [
        {
          "internalType": "uint256",
          "name": "",
          "type": "uint256"
        },
        {
          "internalType": "address",
          "name": "",
          "type": "address"
        }
      ],
      "name": "hasVoted",
      "outputs": [
        {
          "internalType": "bool",
          "name": "",
          "type": "bool"
        }
      ],
      "stateMutability": "view",
      "type": "function"
    },
    {
      "inputs": [
        {
          "internalType": "uint256",
          "name": "blogId",
          "type": "uint256"
        }
      ],
      "name": "tipBlogAuthor",
      "outputs": [],
      "stateMutability": "payable",
      "type": "function"
    },
    {
      "inputs": [
        {
          "internalType": "address",
          "name": "",
          "type": "address"
        }
      ],
      "name": "userList",
      "outputs": [
        {
          "internalType": "string",
          "name": "name",
          "type": "string"
        },
        {
          "internalType": "string",
          "name": "profileImageHashcode",
          "type": "string"
        }
      ],
      "stateMutability": "view",
      "type": "function"
    },
    {
      "inputs": [
        {
          "internalType": "uint256",
          "name": "blogId",
          "type": "uint256"
        },
        {
          "internalType": "bool",
          "name": "approve",
          "type": "bool"
        }
      ],
      "name": "voteOnBlog",
      "outputs": [],
      "stateMutability": "nonpayable",
      "type": "function"
    }
  ],
  "bytecode": "0x6080604052600060015534801561001557600080fd5b50613d84806100256000396000f3fe6080604052600436106100e85760003560e01c806380f052d81161008a578063c45c196e11610059578063c45c196e14610360578063ce43c03214610389578063e8824299146103c6578063fa44b4db146103f1576100e8565b806380f052d81461029e578063945bdada146102e55780639a0883fb1461030e578063aa7e568314610337576100e8565b806323edf697116100c657806323edf697146101a757806343859632146101e457806343a6db18146102215780636012464614610260576100e8565b806304fb3344146100ed578063133f50f51461012c5780631b4e7bd214610169575b600080fd5b3480156100f957600080fd5b50610114600480360381019061010f9190612451565b61040d565b6040516101239392919061254f565b60405180910390f35b34801561013857600080fd5b50610153600480360381019061014e91906125c0565b610577565b6040516101609190612608565b60405180910390f35b34801561017557600080fd5b50610190600480360381019061018b9190612661565b6105d1565b60405161019e92919061268e565b60405180910390f35b3480156101b357600080fd5b506101ce60048036038101906101c99190612451565b610705565b6040516101db919061283f565b60405180910390f35b3480156101f057600080fd5b5061020b60048036038101906102069190612861565b610869565b6040516102189190612608565b60405180910390f35b34801561022d57600080fd5b50610248600480360381019061024391906128a1565b610898565b604051610257939291906128f0565b60405180910390f35b34801561026c57600080fd5b5061028760048036038101906102829190612661565b610987565b604051610295929190612d8e565b60405180910390f35b3480156102aa57600080fd5b506102c560048036038101906102c09190612451565b61106a565b6040516102dc9b9a99989796959493929190612dd4565b60405180910390f35b3480156102f157600080fd5b5061030c60048036038101906103079190612eb9565b61121b565b005b34801561031a57600080fd5b5061033560048036038101906103309190613053565b611610565b005b34801561034357600080fd5b5061035e6004803603810190610359919061310e565b6118db565b005b34801561036c57600080fd5b5061038760048036038101906103829190613232565b6119f0565b005b34801561039557600080fd5b506103b060048036038101906103ab91906125c0565b611c41565b6040516103bd91906132d9565b60405180910390f35b3480156103d257600080fd5b506103db611d5d565b6040516103e891906132fb565b60405180910390f35b61040b60048036038101906104069190612451565b611d63565b005b6000818154811061041d57600080fd5b906000526020600020906003020160009150905080600001805461044090613345565b80601f016020809104026020016040519081016040528092919081815260200182805461046c90613345565b80156104b95780601f1061048e576101008083540402835291602001916104b9565b820191906000526020600020905b81548152906001019060200180831161049c57829003601f168201915b5050505050908060010180546104ce90613345565b80601f01602080910402602001604051908101604052809291908181526020018280546104fa90613345565b80156105475780601f1061051c57610100808354040283529160200191610547565b820191906000526020600020905b81548152906001019060200180831161052a57829003601f168201915b5050505050908060020160009054906101000a900473ffffffffffffffffffffffffffffffffffffffff16905083565b600080600360008473ffffffffffffffffffffffffffffffffffffffff1673ffffffffffffffffffffffffffffffffffffffff16815260200190815260200160002060000180546105c790613345565b9050119050919050565b60036020528060005260406000206000915090508060000180546105f490613345565b80601f016020809104026020016040519081016040528092919081815260200182805461062090613345565b801561066d5780601f106106425761010080835404028352916020019161066d565b820191906000526020600020905b81548152906001019060200180831161065057829003601f168201915b50505050509080600101805461068290613345565b80601f01602080910402602001604051908101604052809291908181526020018280546106ae90613345565b80156106fb5780601f106106d0576101008083540402835291602001916106fb565b820191906000526020600020905b8154815290600101906020018083116106de57829003601f168201915b5050505050905082565b606060046000838152602001908152602001600020805480602002602001604051908101604052809291908181526020016000905b8282101561085e57838290600052602060002090600302016040518060600160405290816000820160009054906101000a900473ffffffffffffffffffffffffffffffffffffffff1673ffffffffffffffffffffffffffffffffffffffff1673ffffffffffffffffffffffffffffffffffffffff168152602001600182015481526020016002820180546107cd90613345565b80601f01602080910402602001604051908101604052809291908181526020018280546107f990613345565b80156108465780601f1061081b57610100808354040283529160200191610846565b820191906000526020600020905b81548152906001019060200180831161082957829003601f168201915b5050505050815250508152602001906001019061073a565b505050509050919050565b60056020528160005260406000206020528060005260406000206000915091509054906101000a900460ff1681565b600460205281600052604060002081815481106108b457600080fd5b9060005260206000209060030201600091509150508060000160009054906101000a900473ffffffffffffffffffffffffffffffffffffffff169080600101549080600201805461090490613345565b80601f016020809104026020016040519081016040528092919081815260200182805461093090613345565b801561097d5780601f106109525761010080835404028352916020019161097d565b820191906000526020600020905b81548152906001019060200180831161096057829003601f168201915b5050505050905083565b606080600080600190505b6001548111610a6c578473ffffffffffffffffffffffffffffffffffffffff166002600083815260200190815260200160002060040160019054906101000a900473ffffffffffffffffffffffffffffffffffffffff1673ffffffffffffffffffffffffffffffffffffffff161480610a115750610a108186611eb8565b5b80610a455750610a446002600083815260200190815260200160002060040160009054906101000a900460ff1686611f8f565b5b15610a59578180610a55906133a5565b9250505b8080610a64906133a5565b915050610992565b5060008167ffffffffffffffff811115610a8957610a88612f03565b5b604051908082528060200260200182016040528015610ac257816020015b610aaf61221d565b815260200190600190039081610aa75790505b50905060008267ffffffffffffffff811115610ae157610ae0612f03565b5b604051908082528060200260200182016040528015610b1457816020015b6060815260200190600190039081610aff5790505b509050600080600190505b600154811161105a578773ffffffffffffffffffffffffffffffffffffffff166002600083815260200190815260200160002060040160019054906101000a900473ffffffffffffffffffffffffffffffffffffffff1673ffffffffffffffffffffffffffffffffffffffff161480610b9e5750610b9d8189611eb8565b5b80610bd25750610bd16002600083815260200190815260200160002060040160009054906101000a900460ff1689611f8f565b5b1561104757600260008281526020019081526020016000206040518061018001604052908160008201548152602001600182018054610c1090613345565b80601f0160208091040260200160405190810160405280929190818152602001828054610c3c90613345565b8015610c895780601f10610c5e57610100808354040283529160200191610c89565b820191906000526020600020905b815481529060010190602001808311610c6c57829003601f168201915b50505050508152602001600282018054610ca290613345565b80601f0160208091040260200160405190810160405280929190818152602001828054610cce90613345565b8015610d1b5780601f10610cf057610100808354040283529160200191610d1b565b820191906000526020600020905b815481529060010190602001808311610cfe57829003601f168201915b50505050508152602001600382015481526020016004820160009054906101000a900460ff166005811115610d5357610d5261295a565b5b6005811115610d6557610d6461295a565b5b81526020016004820160019054906101000a900473ffffffffffffffffffffffffffffffffffffffff1673ffffffffffffffffffffffffffffffffffffffff1673ffffffffffffffffffffffffffffffffffffffff1681526020016005820154815260200160068201805480602002602001604051908101604052809291908181526020018280548015610e4e57602002820191906000526020600020905b8160009054906101000a900473ffffffffffffffffffffffffffffffffffffffff1673ffffffffffffffffffffffffffffffffffffffff1681526020019060010190808311610e04575b5050505050815260200160078201548152602001600882015481526020016009820160009054906101000a900460ff161515151581526020016009820160019054906101000a900460ff161515151581525050848381518110610eb457610eb36133ed565b5b602002602001018190525060046000828152602001908152602001600020805480602002602001604051908101604052809291908181526020016000905b8282101561101657838290600052602060002090600302016040518060600160405290816000820160009054906101000a900473ffffffffffffffffffffffffffffffffffffffff1673ffffffffffffffffffffffffffffffffffffffff1673ffffffffffffffffffffffffffffffffffffffff16815260200160018201548152602001600282018054610f8590613345565b80601f0160208091040260200160405190810160405280929190818152602001828054610fb190613345565b8015610ffe5780601f10610fd357610100808354040283529160200191610ffe565b820191906000526020600020905b815481529060010190602001808311610fe157829003601f168201915b50505050508152505081526020019060010190610ef2565b5050505083838151811061102d5761102c6133ed565b5b60200260200101819052508180611043906133a5565b9250505b8080611052906133a5565b915050610b1f565b5082829550955050505050915091565b600260205280600052604060002060009150905080600001549080600101805461109390613345565b80601f01602080910402602001604051908101604052809291908181526020018280546110bf90613345565b801561110c5780601f106110e15761010080835404028352916020019161110c565b820191906000526020600020905b8154815290600101906020018083116110ef57829003601f168201915b50505050509080600201805461112190613345565b80601f016020809104026020016040519081016040528092919081815260200182805461114d90613345565b801561119a5780601f1061116f5761010080835404028352916020019161119a565b820191906000526020600020905b81548152906001019060200180831161117d57829003601f168201915b5050505050908060030154908060040160009054906101000a900460ff16908060040160019054906101000a900473ffffffffffffffffffffffffffffffffffffffff16908060050154908060070154908060080154908060090160009054906101000a900460ff16908060090160019054906101000a900460ff1690508b565b60008211801561122d57506001548211155b61126c576040517f08c379a000000000000000000000000000000000000000000000000000000000815260040161126390613468565b60405180910390fd5b6005600083815260200190815260200160002060003373ffffffffffffffffffffffffffffffffffffffff1673ffffffffffffffffffffffffffffffffffffffff16815260200190815260200160002060009054906101000a900460ff161561130a576040517f08c379a0000000000000000000000000000000000000000000000000000000008152600401611301906134d4565b60405180910390fd5b62015180600260008481526020019081526020016000206005015461132f91906134f4565b421115611371576040517f08c379a000000000000000000000000000000000000000000000000000000000815260040161136890613574565b60405180910390fd5b60006002600084815260200190815260200160002090508060090160019054906101000a900460ff161580156113b657508060090160009054906101000a900460ff16155b6113f5576040517f08c379a00000000000000000000000000000000000000000000000000000000081526004016113ec906135e0565b60405180910390fd5b6113ff8333611eb8565b61143e576040517f08c379a00000000000000000000000000000000000000000000000000000000081526004016114359061364c565b60405180910390fd5b60016005600085815260200190815260200160002060003373ffffffffffffffffffffffffffffffffffffffff1673ffffffffffffffffffffffffffffffffffffffff16815260200190815260200160002060006101000a81548160ff02191690831515021790555081156114cc578060070160008154809291906114c2906133a5565b91905055506114e7565b8060080160008154809291906114e1906133a5565b91905055505b600281600601805490506114fb919061369b565b816008015411156115935760018160090160006101000a81548160ff0219169083151502179055508060040160019054906101000a900473ffffffffffffffffffffffffffffffffffffffff1673ffffffffffffffffffffffffffffffffffffffff166108fc82600301549081150290604051600060405180830381858888f19350505050158015611591573d6000803e3d6000fd5b505b600281600601805490506115a7919061369b565b816007015411156115d05760018160090160016101000a81548160ff0219169083151502179055505b7f9471c350168d79c4a42466c0fdd8597e5f7b94f82934e900478e43bd8dfb3603833384604051611603939291906136db565b60405180910390a1505050565b6000845111611654576040517f08c379a000000000000000000000000000000000000000000000000000000000815260040161164b9061375e565b60405180910390fd5b6000825111611698576040517f08c379a000000000000000000000000000000000000000000000000000000000815260040161168f906137ca565b60405180910390fd5b600160008154809291906116ab906133a5565b919050555060006116bc600f6120ab565b90506040518061018001604052806001548152602001868152602001858152602001600081526020018360058111156116f8576116f761295a565b5b81526020013373ffffffffffffffffffffffffffffffffffffffff1681526020014281526020018281526020016000815260200160008152602001600015158152602001600015158152506002600060015481526020019081526020016000206000820151816000015560208201518160010190816117779190613996565b50604082015181600201908161178d9190613996565b506060820151816003015560808201518160040160006101000a81548160ff021916908360058111156117c3576117c261295a565b5b021790555060a08201518160040160016101000a81548173ffffffffffffffffffffffffffffffffffffffff021916908373ffffffffffffffffffffffffffffffffffffffff16021790555060c0820151816005015560e08201518160060190805190602001906118359291906122aa565b50610100820151816007015561012082015181600801556101408201518160090160006101000a81548160ff0219169083151502179055506101608201518160090160016101000a81548160ff0219169083151502179055509050507f75383c909d6581446b63fc9c39f9c3ea7059424c9414c106867bab52395dade660015486868686336040516118cc96959493929190613a68565b60405180910390a15050505050565b6004600083815260200190815260200160002060405180606001604052803373ffffffffffffffffffffffffffffffffffffffff16815260200142815260200183815250908060018154018082558091505060019003906000526020600020906003020160009091909190915060008201518160000160006101000a81548173ffffffffffffffffffffffffffffffffffffffff021916908373ffffffffffffffffffffffffffffffffffffffff1602179055506020820151816001015560408201518160020190816119ae9190613996565b5050507fcc2d7dd2085ae6644799a42c0174adf9afc10a43f26db5eac3ddd1f96d1d64be8233836040516119e493929190613ade565b60405180910390a15050565b6000600360003373ffffffffffffffffffffffffffffffffffffffff1673ffffffffffffffffffffffffffffffffffffffff1681526020019081526020016000206000018054611a3f90613345565b905014611a81576040517f08c379a0000000000000000000000000000000000000000000000000000000008152600401611a7890613b68565b60405180910390fd5b6000835111611ac5576040517f08c379a0000000000000000000000000000000000000000000000000000000008152600401611abc90613bd4565b60405180910390fd5b604051806060016040528084815260200183815260200182815250600360003373ffffffffffffffffffffffffffffffffffffffff1673ffffffffffffffffffffffffffffffffffffffff1681526020019081526020016000206000820151816000019081611b349190613996565b506020820151816001019081611b4a9190613996565b506040820151816002019080519060200190611b67929190612334565b50905050600060405180606001604052808581526020018481526020013373ffffffffffffffffffffffffffffffffffffffff1681525090806001815401808255809150506001900390600052602060002090600302016000909190919091506000820151816000019081611bdc9190613996565b506020820151816001019081611bf29190613996565b5060408201518160020160006101000a81548173ffffffffffffffffffffffffffffffffffffffff021916908373ffffffffffffffffffffffffffffffffffffffff1602179055505050505050565b6060611c4c82610577565b611c8b576040517f08c379a0000000000000000000000000000000000000000000000000000000008152600401611c8290613c40565b60405180910390fd5b600360008373ffffffffffffffffffffffffffffffffffffffff1673ffffffffffffffffffffffffffffffffffffffff1681526020019081526020016000206000018054611cd890613345565b80601f0160208091040260200160405190810160405280929190818152602001828054611d0490613345565b8015611d515780601f10611d2657610100808354040283529160200191611d51565b820191906000526020600020905b815481529060010190602001808311611d3457829003601f168201915b50505050509050919050565b60015481565b600081118015611d7557506001548111155b611db4576040517f08c379a0000000000000000000000000000000000000000000000000000000008152600401611dab90613468565b60405180910390fd5b60006002600083815260200190815260200160002090508060040160019054906101000a900473ffffffffffffffffffffffffffffffffffffffff1673ffffffffffffffffffffffffffffffffffffffff166108fc349081150290604051600060405180830381858888f19350505050158015611e35573d6000803e3d6000fd5b5034816003016000828254611e4a91906134f4565b925050819055507fae4dbb711e9fe3e7d9163fbf45e78071d10d10242bbda5d8a66354e1b04ecb6d8282600301548360040160019054906101000a900473ffffffffffffffffffffffffffffffffffffffff16604051611eac93929190613c86565b60405180910390a15050565b600080600090505b6002600085815260200190815260200160002060060180549050811015611f83578273ffffffffffffffffffffffffffffffffffffffff16600260008681526020019081526020016000206006018281548110611f2057611f1f6133ed565b5b9060005260206000200160009054906101000a900473ffffffffffffffffffffffffffffffffffffffff1673ffffffffffffffffffffffffffffffffffffffff1603611f70576001915050611f89565b8080611f7b906133a5565b915050611ec0565b50600090505b92915050565b600080600090505b600360008473ffffffffffffffffffffffffffffffffffffffff1673ffffffffffffffffffffffffffffffffffffffff1681526020019081526020016000206002018054905081101561209f57836005811115611ff757611ff661295a565b5b600360008573ffffffffffffffffffffffffffffffffffffffff1673ffffffffffffffffffffffffffffffffffffffff168152602001908152602001600020600201828154811061204b5761204a6133ed565b5b90600052602060002090602091828204019190069054906101000a900460ff16600581111561207d5761207c61295a565b5b0361208c5760019150506120a5565b8080612097906133a5565b915050611f97565b50600090505b92915050565b60606000808054905090508083116120c357826120c5565b805b925060008367ffffffffffffffff8111156120e3576120e2612f03565b5b6040519080825280602002602001820160405280156121115781602001602082028036833780820191505090505b50905060004442604051602001612129929190613cf1565b6040516020818303038152906040528051906020012060001c905060005b8581101561221157600084828461215e91906134f4565b6121689190613d1d565b90506000818154811061217e5761217d6133ed565b5b906000526020600020906003020160020160009054906101000a900473ffffffffffffffffffffffffffffffffffffffff168483815181106121c3576121c26133ed565b5b602002602001019073ffffffffffffffffffffffffffffffffffffffff16908173ffffffffffffffffffffffffffffffffffffffff1681525050508080612209906133a5565b915050612147565b50819350505050919050565b60405180610180016040528060008152602001606081526020016060815260200160008152602001600060058111156122595761225861295a565b5b8152602001600073ffffffffffffffffffffffffffffffffffffffff168152602001600081526020016060815260200160008152602001600081526020016000151581526020016000151581525090565b828054828255906000526020600020908101928215612323579160200282015b828111156123225782518260006101000a81548173ffffffffffffffffffffffffffffffffffffffff021916908373ffffffffffffffffffffffffffffffffffffffff160217905550916020019190600101906122ca565b5b50905061233091906123ea565b5090565b82805482825590600052602060002090601f016020900481019282156123d95791602002820160005b838211156123aa57835183826101000a81548160ff021916908360058111156123895761238861295a565b5b0217905550926020019260010160208160000104928301926001030261235d565b80156123d75782816101000a81549060ff02191690556001016020816000010492830192600103026123aa565b505b5090506123e691906123ea565b5090565b5b808211156124035760008160009055506001016123eb565b5090565b6000604051905090565b600080fd5b600080fd5b6000819050919050565b61242e8161241b565b811461243957600080fd5b50565b60008135905061244b81612425565b92915050565b60006020828403121561246757612466612411565b5b60006124758482850161243c565b91505092915050565b600081519050919050565b600082825260208201905092915050565b60005b838110156124b857808201518184015260208101905061249d565b60008484015250505050565b6000601f19601f8301169050919050565b60006124e08261247e565b6124ea8185612489565b93506124fa81856020860161249a565b612503816124c4565b840191505092915050565b600073ffffffffffffffffffffffffffffffffffffffff82169050919050565b60006125398261250e565b9050919050565b6125498161252e565b82525050565b6000606082019050818103600083015261256981866124d5565b9050818103602083015261257d81856124d5565b905061258c6040830184612540565b949350505050565b61259d8161252e565b81146125a857600080fd5b50565b6000813590506125ba81612594565b92915050565b6000602082840312156125d6576125d5612411565b5b60006125e4848285016125ab565b91505092915050565b60008115159050919050565b612602816125ed565b82525050565b600060208201905061261d60008301846125f9565b92915050565b600061262e8261250e565b9050919050565b61263e81612623565b811461264957600080fd5b50565b60008135905061265b81612635565b92915050565b60006020828403121561267757612676612411565b5b60006126858482850161264c565b91505092915050565b600060408201905081810360008301526126a881856124d5565b905081810360208301526126bc81846124d5565b90509392505050565b600081519050919050565b600082825260208201905092915050565b6000819050602082019050919050565b6126fa8161252e565b82525050565b6127098161241b565b82525050565b600082825260208201905092915050565b600061272b8261247e565b612735818561270f565b935061274581856020860161249a565b61274e816124c4565b840191505092915050565b600060608301600083015161277160008601826126f1565b5060208301516127846020860182612700565b506040830151848203604086015261279c8282612720565b9150508091505092915050565b60006127b58383612759565b905092915050565b6000602082019050919050565b60006127d5826126c5565b6127df81856126d0565b9350836020820285016127f1856126e1565b8060005b8581101561282d578484038952815161280e85826127a9565b9450612819836127bd565b925060208a019950506001810190506127f5565b50829750879550505050505092915050565b6000602082019050818103600083015261285981846127ca565b905092915050565b6000806040838503121561287857612877612411565b5b60006128868582860161243c565b92505060206128978582860161264c565b9150509250929050565b600080604083850312156128b8576128b7612411565b5b60006128c68582860161243c565b92505060206128d78582860161243c565b9150509250929050565b6128ea8161241b565b82525050565b60006060820190506129056000830186612540565b61291260208301856128e1565b818103604083015261292481846124d5565b9050949350505050565b600081519050919050565b600082825260208201905092915050565b6000819050602082019050919050565b7f4e487b7100000000000000000000000000000000000000000000000000000000600052602160045260246000fd5b6006811061299a5761299961295a565b5b50565b60008190506129ab82612989565b919050565b60006129bb8261299d565b9050919050565b6129cb816129b0565b82525050565b600081519050919050565b600082825260208201905092915050565b6000819050602082019050919050565b612a0681612623565b82525050565b6000612a1883836129fd565b60208301905092915050565b6000602082019050919050565b6000612a3c826129d1565b612a4681856129dc565b9350612a51836129ed565b8060005b83811015612a82578151612a698882612a0c565b9750612a7483612a24565b925050600181019050612a55565b5085935050505092915050565b612a98816125ed565b82525050565b600061018083016000830151612ab76000860182612700565b5060208301518482036020860152612acf8282612720565b91505060408301518482036040860152612ae98282612720565b9150506060830151612afe6060860182612700565b506080830151612b1160808601826129c2565b5060a0830151612b2460a08601826126f1565b5060c0830151612b3760c0860182612700565b5060e083015184820360e0860152612b4f8282612a31565b915050610100830151612b66610100860182612700565b50610120830151612b7b610120860182612700565b50610140830151612b90610140860182612a8f565b50610160830151612ba5610160860182612a8f565b508091505092915050565b6000612bbc8383612a9e565b905092915050565b6000602082019050919050565b6000612bdc8261292e565b612be68185612939565b935083602082028501612bf88561294a565b8060005b85811015612c345784840389528151612c158582612bb0565b9450612c2083612bc4565b925060208a01995050600181019050612bfc565b50829750879550505050505092915050565b600081519050919050565b600082825260208201905092915050565b6000819050602082019050919050565b600082825260208201905092915050565b6000612c8e826126c5565b612c988185612c72565b935083602082028501612caa856126e1565b8060005b85811015612ce65784840389528151612cc785826127a9565b9450612cd2836127bd565b925060208a01995050600181019050612cae565b50829750879550505050505092915050565b6000612d048383612c83565b905092915050565b6000602082019050919050565b6000612d2482612c46565b612d2e8185612c51565b935083602082028501612d4085612c62565b8060005b85811015612d7c5784840389528151612d5d8582612cf8565b9450612d6883612d0c565b925060208a01995050600181019050612d44565b50829750879550505050505092915050565b60006040820190508181036000830152612da88185612bd1565b90508181036020830152612dbc8184612d19565b90509392505050565b612dce816129b0565b82525050565b600061016082019050612dea600083018e6128e1565b8181036020830152612dfc818d6124d5565b90508181036040830152612e10818c6124d5565b9050612e1f606083018b6128e1565b612e2c608083018a612dc5565b612e3960a0830189612540565b612e4660c08301886128e1565b612e5360e08301876128e1565b612e616101008301866128e1565b612e6f6101208301856125f9565b612e7d6101408301846125f9565b9c9b505050505050505050505050565b612e96816125ed565b8114612ea157600080fd5b50565b600081359050612eb381612e8d565b92915050565b60008060408385031215612ed057612ecf612411565b5b6000612ede8582860161243c565b9250506020612eef85828601612ea4565b9150509250929050565b600080fd5b600080fd5b7f4e487b7100000000000000000000000000000000000000000000000000000000600052604160045260246000fd5b612f3b826124c4565b810181811067ffffffffffffffff82111715612f5a57612f59612f03565b5b80604052505050565b6000612f6d612407565b9050612f798282612f32565b919050565b600067ffffffffffffffff821115612f9957612f98612f03565b5b612fa2826124c4565b9050602081019050919050565b82818337600083830152505050565b6000612fd1612fcc84612f7e565b612f63565b905082815260208101848484011115612fed57612fec612efe565b5b612ff8848285612faf565b509392505050565b600082601f83011261301557613014612ef9565b5b8135613025848260208601612fbe565b91505092915050565b6006811061303b57600080fd5b50565b60008135905061304d8161302e565b92915050565b6000806000806080858703121561306d5761306c612411565b5b600085013567ffffffffffffffff81111561308b5761308a612416565b5b61309787828801613000565b945050602085013567ffffffffffffffff8111156130b8576130b7612416565b5b6130c487828801613000565b935050604085013567ffffffffffffffff8111156130e5576130e4612416565b5b6130f187828801613000565b92505060606131028782880161303e565b91505092959194509250565b6000806040838503121561312557613124612411565b5b60006131338582860161243c565b925050602083013567ffffffffffffffff81111561315457613153612416565b5b61316085828601613000565b9150509250929050565b600067ffffffffffffffff82111561318557613184612f03565b5b602082029050602081019050919050565b600080fd5b60006131ae6131a98461316a565b612f63565b905080838252602082019050602084028301858111156131d1576131d0613196565b5b835b818110156131fa57806131e6888261303e565b8452602084019350506020810190506131d3565b5050509392505050565b600082601f83011261321957613218612ef9565b5b813561322984826020860161319b565b91505092915050565b60008060006060848603121561324b5761324a612411565b5b600084013567ffffffffffffffff81111561326957613268612416565b5b61327586828701613000565b935050602084013567ffffffffffffffff81111561329657613295612416565b5b6132a286828701613000565b925050604084013567ffffffffffffffff8111156132c3576132c2612416565b5b6132cf86828701613204565b9150509250925092565b600060208201905081810360008301526132f381846124d5565b905092915050565b600060208201905061331060008301846128e1565b92915050565b7f4e487b7100000000000000000000000000000000000000000000000000000000600052602260045260246000fd5b6000600282049050600182168061335d57607f821691505b6020821081036133705761336f613316565b5b50919050565b7f4e487b7100000000000000000000000000000000000000000000000000000000600052601160045260246000fd5b60006133b08261241b565b91507fffffffffffffffffffffffffffffffffffffffffffffffffffffffffffffffff82036133e2576133e1613376565b5b600182019050919050565b7f4e487b7100000000000000000000000000000000000000000000000000000000600052603260045260246000fd5b7f496e76616c696420626c6f670000000000000000000000000000000000000000600082015250565b6000613452600c83612489565b915061345d8261341c565b602082019050919050565b6000602082019050818103600083015261348181613445565b9050919050565b7f416c726561647920766f74656400000000000000000000000000000000000000600082015250565b60006134be600d83612489565b91506134c982613488565b602082019050919050565b600060208201905081810360008301526134ed816134b1565b9050919050565b60006134ff8261241b565b915061350a8361241b565b925082820190508082111561352257613521613376565b5b92915050565b7f566f74696e6720706572696f64206f7665720000000000000000000000000000600082015250565b600061355e601283612489565b915061356982613528565b602082019050919050565b6000602082019050818103600083015261358d81613551565b9050919050565b7f416c7265616479207265736f6c76656400000000000000000000000000000000600082015250565b60006135ca601083612489565b91506135d582613594565b602082019050919050565b600060208201905081810360008301526135f9816135bd565b9050919050565b7f4e6f7420656c696769626c6520746f20766f7465000000000000000000000000600082015250565b6000613636601483612489565b915061364182613600565b602082019050919050565b6000602082019050818103600083015261366581613629565b9050919050565b7f4e487b7100000000000000000000000000000000000000000000000000000000600052601260045260246000fd5b60006136a68261241b565b91506136b18361241b565b9250826136c1576136c061366c565b5b828204905092915050565b6136d581612623565b82525050565b60006060820190506136f060008301866128e1565b6136fd60208301856136cc565b61370a60408301846125f9565b949350505050565b7f436f6e74656e7420726571756972656400000000000000000000000000000000600082015250565b6000613748601083612489565b915061375382613712565b602082019050919050565b600060208201905081810360008301526137778161373b565b9050919050565b7f5469746c65207265717569726564000000000000000000000000000000000000600082015250565b60006137b4600e83612489565b91506137bf8261377e565b602082019050919050565b600060208201905081810360008301526137e3816137a7565b9050919050565b60008190508160005260206000209050919050565b60006020601f8301049050919050565b600082821b905092915050565b60006008830261384c7fffffffffffffffffffffffffffffffffffffffffffffffffffffffffffffffff8261380f565b613856868361380f565b95508019841693508086168417925050509392505050565b6000819050919050565b600061389361388e6138898461241b565b61386e565b61241b565b9050919050565b6000819050919050565b6138ad83613878565b6138c16138b98261389a565b84845461381c565b825550505050565b600090565b6138d66138c9565b6138e18184846138a4565b505050565b5b81811015613905576138fa6000826138ce565b6001810190506138e7565b5050565b601f82111561394a5761391b816137ea565b613924846137ff565b81016020851015613933578190505b61394761393f856137ff565b8301826138e6565b50505b505050565b600082821c905092915050565b600061396d6000198460080261394f565b1980831691505092915050565b6000613986838361395c565b9150826002028217905092915050565b61399f8261247e565b67ffffffffffffffff8111156139b8576139b7612f03565b5b6139c28254613345565b6139cd828285613909565b600060209050601f831160018114613a0057600084156139ee578287015190505b6139f8858261397a565b865550613a60565b601f198416613a0e866137ea565b60005b82811015613a3657848901518255600182019150602085019450602081019050613a11565b86831015613a535784890151613a4f601f89168261395c565b8355505b6001600288020188555050505b505050505050565b600060c082019050613a7d60008301896128e1565b8181036020830152613a8f81886124d5565b90508181036040830152613aa381876124d5565b90508181036060830152613ab781866124d5565b9050613ac66080830185612dc5565b613ad360a0830184612540565b979650505050505050565b6000606082019050613af360008301866128e1565b613b0060208301856136cc565b8181036040830152613b1281846124d5565b9050949350505050565b7f5573657220657869737473000000000000000000000000000000000000000000600082015250565b6000613b52600b83612489565b9150613b5d82613b1c565b602082019050919050565b60006020820190508181036000830152613b8181613b45565b9050919050565b7f4e616d6520726571756972656400000000000000000000000000000000000000600082015250565b6000613bbe600d83612489565b9150613bc982613b88565b602082019050919050565b60006020820190508181036000830152613bed81613bb1565b9050919050565b7f55736572206973206e6f74207265676973746572656400000000000000000000600082015250565b6000613c2a601683612489565b9150613c3582613bf4565b602082019050919050565b60006020820190508181036000830152613c5981613c1d565b9050919050565b50565b6000613c70600083612489565b9150613c7b82613c60565b600082019050919050565b6000608082019050613c9b60008301866128e1565b8181036020830152613cac81613c63565b9050613cbb60408301856128e1565b613cc86060830184612540565b949350505050565b6000819050919050565b613ceb613ce68261241b565b613cd0565b82525050565b6000613cfd8285613cda565b602082019150613d0d8284613cda565b6020820191508190509392505050565b6000613d288261241b565b9150613d338361241b565b925082613d4357613d4261366c565b5b82820690509291505056fea2646970667358221220b94a162837556458e471836f78d729df2858fc1302e4afeea3287c6b04953f3464736f6c63430008110033",
  "linkReferences": {},
  "deployedLinkReferences": {}
}