{
  "_format": "hh-sol-artifact-1",
  "contractName": "BlogApp",
  "sourceName": "contracts/BlogApp.sol",
  "abi": [
    {
      "anonymous": false,
      "inputs": [
        {
          "indexed": false,
          "internalType": "uint256",
          "name": "id",
          "type": "uint256"
        },
        {
          "indexed": false,
          "internalType": "string",
          "name": "hash",
          "type": "string"
        },
        {
          "indexed": false,
          "internalType": "string",
          "name": "description",
          "type": "string"
        },
        {
          "indexed": false,
          "internalType": "uint256",
          "name": "tipAmount",
          "type": "uint256"
        },
        {
          "indexed": false,
          "internalType": "address payable",
          "name": "author",
          "type": "address"
        }
      ],
      "name": "ImageCreated",
      "type": "event"
    },
    {
      "anonymous": false,
      "inputs": [
        {
          "indexed": false,
          "internalType": "uint256",
          "name": "id",
          "type": "uint256"
        },
        {
          "indexed": false,
          "internalType": "string",
          "name": "hash",
          "type": "string"
        },
        {
          "indexed": false,
          "internalType": "string",
          "name": "description",
          "type": "string"
        },
        {
          "indexed": false,
          "internalType": "uint256",
          "name": "tipAmount",
          "type": "uint256"
        },
        {
          "indexed": false,
          "internalType": "address payable",
          "name": "author",
          "type": "address"
        }
      ],
      "name": "ImageTipped",
      "type": "event"
    },
    {
      "inputs": [
        {
          "internalType": "address payable",
          "name": "pubkey",
          "type": "address"
        }
      ],
      "name": "checkUserExists",
      "outputs": [
        {
          "internalType": "bool",
          "name": "",
          "type": "bool"
        }
      ],
      "stateMutability": "view",
      "type": "function"
    },
    {
      "inputs": [
        {
          "internalType": "string",
          "name": "name",
          "type": "string"
        },
        {
          "internalType": "string",
          "name": "profileHash",
          "type": "string"
        },
        {
          "internalType": "enum BlogApp.BlogCategory[]",
          "name": "preferences",
          "type": "uint8[]"
        }
      ],
      "name": "createAccount",
      "outputs": [],
      "stateMutability": "nonpayable",
      "type": "function"
    },
    {
      "inputs": [],
      "name": "getAllAppUser",
      "outputs": [
        {
          "components": [
            {
              "internalType": "string",
              "name": "name",
              "type": "string"
            },
            {
              "internalType": "string",
              "name": "profileImageHashcode",
              "type": "string"
            },
            {
              "internalType": "address payable",
              "name": "accountAddress",
              "type": "address"
            }
          ],
          "internalType": "struct BlogApp.AllUserStruct[]",
          "name": "",
          "type": "tuple[]"
        }
      ],
      "stateMutability": "view",
      "type": "function"
    },
    {
      "inputs": [
        {
          "internalType": "uint256",
          "name": "",
          "type": "uint256"
        }
      ],
      "name": "getAllUsers",
      "outputs": [
        {
          "internalType": "string",
          "name": "name",
          "type": "string"
        },
        {
          "internalType": "string",
          "name": "profileImageHashcode",
          "type": "string"
        },
        {
          "internalType": "address payable",
          "name": "accountAddress",
          "type": "address"
        }
      ],
      "stateMutability": "view",
      "type": "function"
    },
    {
      "inputs": [
        {
          "internalType": "address payable",
          "name": "pubkey",
          "type": "address"
        }
      ],
      "name": "getUsername",
      "outputs": [
        {
          "internalType": "string",
          "name": "",
          "type": "string"
        }
      ],
      "stateMutability": "view",
      "type": "function"
    },
    {
      "inputs": [],
      "name": "imageCount",
      "outputs": [
        {
          "internalType": "uint256",
          "name": "",
          "type": "uint256"
        }
      ],
      "stateMutability": "view",
      "type": "function"
    },
    {
      "inputs": [
        {
          "internalType": "uint256",
          "name": "",
          "type": "uint256"
        }
      ],
      "name": "images",
      "outputs": [
        {
          "internalType": "uint256",
          "name": "id",
          "type": "uint256"
        },
        {
          "internalType": "string",
          "name": "hash",
          "type": "string"
        },
        {
          "internalType": "string",
          "name": "description",
          "type": "string"
        },
        {
          "internalType": "uint256",
          "name": "tipAmount",
          "type": "uint256"
        },
        {
          "internalType": "address payable",
          "name": "author",
          "type": "address"
        }
      ],
      "stateMutability": "view",
      "type": "function"
    },
    {
      "inputs": [
        {
          "internalType": "address",
          "name": "friend_key",
          "type": "address"
        }
      ],
      "name": "readMessage",
      "outputs": [
        {
          "components": [
            {
              "internalType": "address payable",
              "name": "sender",
              "type": "address"
            },
            {
              "internalType": "uint256",
              "name": "timestamp",
              "type": "uint256"
            },
            {
              "internalType": "string",
              "name": "msg",
              "type": "string"
            }
          ],
          "internalType": "struct BlogApp.message[]",
          "name": "",
          "type": "tuple[]"
        }
      ],
      "stateMutability": "view",
      "type": "function"
    },
    {
      "inputs": [
        {
          "internalType": "uint256",
          "name": "_id",
          "type": "uint256"
        }
      ],
      "name": "tipImageOwner",
      "outputs": [],
      "stateMutability": "payable",
      "type": "function"
    },
    {
      "inputs": [
        {
          "internalType": "string",
          "name": "_imgHash",
          "type": "string"
        },
        {
          "internalType": "string",
          "name": "_description",
          "type": "string"
        }
      ],
      "name": "uploadImage",
      "outputs": [],
      "stateMutability": "nonpayable",
      "type": "function"
    },
    {
      "inputs": [
        {
          "internalType": "address",
          "name": "",
          "type": "address"
        }
      ],
      "name": "userList",
      "outputs": [
        {
          "internalType": "string",
          "name": "name",
          "type": "string"
        },
        {
          "internalType": "string",
          "name": "profileImageHashcode",
          "type": "string"
        }
      ],
      "stateMutability": "view",
      "type": "function"
    }
  ],
  "bytecode": "0x6080604052600060015534801561001557600080fd5b506123eb806100256000396000f3fe60806040526004361061009c5760003560e01c80638567ade8116100645780638567ade8146101d957806392053b63146101f5578063a24d41de14610220578063a91b83141461024b578063c45c196e14610274578063ce43c0321461029d5761009c565b806304fb3344146100a1578063133f50f5146100e05780631b4e7bd21461011d578063255e9c111461015b5780638485648214610198575b600080fd5b3480156100ad57600080fd5b506100c860048036038101906100c39190611470565b6102da565b6040516100d79392919061156e565b60405180910390f35b3480156100ec57600080fd5b50610107600480360381019061010291906115df565b610444565b6040516101149190611627565b60405180910390f35b34801561012957600080fd5b50610144600480360381019061013f9190611680565b61049e565b6040516101529291906116ad565b60405180910390f35b34801561016757600080fd5b50610182600480360381019061017d9190611680565b6105d2565b60405161018f919061185e565b60405180910390f35b3480156101a457600080fd5b506101bf60048036038101906101ba9190611470565b610745565b6040516101d095949392919061188f565b60405180910390f35b6101f360048036038101906101ee9190611470565b6108ab565b005b34801561020157600080fd5b5061020a610bdd565b60405161021791906118f0565b60405180910390f35b34801561022c57600080fd5b50610235610be3565b6040516102429190611a24565b60405180910390f35b34801561025757600080fd5b50610272600480360381019061026d9190611b7b565b610dbc565b005b34801561028057600080fd5b5061029b60048036038101906102969190611ce0565b610f4e565b005b3480156102a957600080fd5b506102c460048036038101906102bf91906115df565b61119f565b6040516102d19190611d87565b60405180910390f35b600081815481106102ea57600080fd5b906000526020600020906003020160009150905080600001805461030d90611dd8565b80601f016020809104026020016040519081016040528092919081815260200182805461033990611dd8565b80156103865780601f1061035b57610100808354040283529160200191610386565b820191906000526020600020905b81548152906001019060200180831161036957829003601f168201915b50505050509080600101805461039b90611dd8565b80601f01602080910402602001604051908101604052809291908181526020018280546103c790611dd8565b80156104145780601f106103e957610100808354040283529160200191610414565b820191906000526020600020905b8154815290600101906020018083116103f757829003601f168201915b5050505050908060020160009054906101000a900473ffffffffffffffffffffffffffffffffffffffff16905083565b600080600260008473ffffffffffffffffffffffffffffffffffffffff1673ffffffffffffffffffffffffffffffffffffffff168152602001908152602001600020600001805461049490611dd8565b9050119050919050565b60026020528060005260406000206000915090508060000180546104c190611dd8565b80601f01602080910402602001604051908101604052809291908181526020018280546104ed90611dd8565b801561053a5780601f1061050f5761010080835404028352916020019161053a565b820191906000526020600020905b81548152906001019060200180831161051d57829003601f168201915b50505050509080600101805461054f90611dd8565b80601f016020809104026020016040519081016040528092919081815260200182805461057b90611dd8565b80156105c85780601f1061059d576101008083540402835291602001916105c8565b820191906000526020600020905b8154815290600101906020018083116105ab57829003601f168201915b5050505050905082565b606060006105e033846112bb565b905060046000828152602001908152602001600020805480602002602001604051908101604052809291908181526020016000905b8282101561073957838290600052602060002090600302016040518060600160405290816000820160009054906101000a900473ffffffffffffffffffffffffffffffffffffffff1673ffffffffffffffffffffffffffffffffffffffff1673ffffffffffffffffffffffffffffffffffffffff168152602001600182015481526020016002820180546106a890611dd8565b80601f01602080910402602001604051908101604052809291908181526020018280546106d490611dd8565b80156107215780601f106106f657610100808354040283529160200191610721565b820191906000526020600020905b81548152906001019060200180831161070457829003601f168201915b50505050508152505081526020019060010190610615565b50505050915050919050565b600360205280600052604060002060009150905080600001549080600101805461076e90611dd8565b80601f016020809104026020016040519081016040528092919081815260200182805461079a90611dd8565b80156107e75780601f106107bc576101008083540402835291602001916107e7565b820191906000526020600020905b8154815290600101906020018083116107ca57829003601f168201915b5050505050908060020180546107fc90611dd8565b80601f016020809104026020016040519081016040528092919081815260200182805461082890611dd8565b80156108755780601f1061084a57610100808354040283529160200191610875565b820191906000526020600020905b81548152906001019060200180831161085857829003601f168201915b5050505050908060030154908060040160009054906101000a900473ffffffffffffffffffffffffffffffffffffffff16905085565b6000811180156108bd57506001548111155b6108c657600080fd5b6000600360008381526020019081526020016000206040518060a00160405290816000820154815260200160018201805461090090611dd8565b80601f016020809104026020016040519081016040528092919081815260200182805461092c90611dd8565b80156109795780601f1061094e57610100808354040283529160200191610979565b820191906000526020600020905b81548152906001019060200180831161095c57829003601f168201915b5050505050815260200160028201805461099290611dd8565b80601f01602080910402602001604051908101604052809291908181526020018280546109be90611dd8565b8015610a0b5780601f106109e057610100808354040283529160200191610a0b565b820191906000526020600020905b8154815290600101906020018083116109ee57829003601f168201915b50505050508152602001600382015481526020016004820160009054906101000a900473ffffffffffffffffffffffffffffffffffffffff1673ffffffffffffffffffffffffffffffffffffffff1673ffffffffffffffffffffffffffffffffffffffff168152505090506000816080015190508073ffffffffffffffffffffffffffffffffffffffff166108fc674563918244f400009081150290604051600060405180830381858888f19350505050158015610acd573d6000803e3d6000fd5b50674563918244f400008260600151610ae69190611e38565b8260600181815250508160036000858152602001908152602001600020600082015181600001556020820151816001019081610b229190612018565b506040820151816002019081610b389190612018565b506060820151816003015560808201518160040160006101000a81548173ffffffffffffffffffffffffffffffffffffffff021916908373ffffffffffffffffffffffffffffffffffffffff1602179055509050507f1be5317bca8d3f70dc1efe89958be71bff36cdca33fc00a6423e25eb2f1d492f8383602001518460400151856060015185604051610bd095949392919061188f565b60405180910390a1505050565b60015481565b60606000805480602002602001604051908101604052809291908181526020016000905b82821015610db35783829060005260206000209060030201604051806060016040529081600082018054610c3a90611dd8565b80601f0160208091040260200160405190810160405280929190818152602001828054610c6690611dd8565b8015610cb35780601f10610c8857610100808354040283529160200191610cb3565b820191906000526020600020905b815481529060010190602001808311610c9657829003601f168201915b50505050508152602001600182018054610ccc90611dd8565b80601f0160208091040260200160405190810160405280929190818152602001828054610cf890611dd8565b8015610d455780601f10610d1a57610100808354040283529160200191610d45565b820191906000526020600020905b815481529060010190602001808311610d2857829003601f168201915b505050505081526020016002820160009054906101000a900473ffffffffffffffffffffffffffffffffffffffff1673ffffffffffffffffffffffffffffffffffffffff1673ffffffffffffffffffffffffffffffffffffffff168152505081526020019060010190610c07565b50505050905090565b6000825111610dca57600080fd5b6000815111610dd857600080fd5b600073ffffffffffffffffffffffffffffffffffffffff163373ffffffffffffffffffffffffffffffffffffffff1603610e1157600080fd5b60016000815480929190610e24906120ea565b91905055506040518060a001604052806001548152602001838152602001828152602001600081526020013373ffffffffffffffffffffffffffffffffffffffff16815250600360006001548152602001908152602001600020600082015181600001556020820151816001019081610e9d9190612018565b506040820151816002019081610eb39190612018565b506060820151816003015560808201518160040160006101000a81548173ffffffffffffffffffffffffffffffffffffffff021916908373ffffffffffffffffffffffffffffffffffffffff1602179055509050507fc1d8dfa99b3f84f95d3f0bc4a768addeb97b83b20aef7f9cb6729e126bafd2f96001548383600033604051610f4295949392919061216d565b60405180910390a15050565b6000600260003373ffffffffffffffffffffffffffffffffffffffff1673ffffffffffffffffffffffffffffffffffffffff1681526020019081526020016000206000018054610f9d90611dd8565b905014610fdf576040517f08c379a0000000000000000000000000000000000000000000000000000000008152600401610fd69061221a565b60405180910390fd5b6000835111611023576040517f08c379a000000000000000000000000000000000000000000000000000000000815260040161101a90612286565b60405180910390fd5b604051806060016040528084815260200183815260200182815250600260003373ffffffffffffffffffffffffffffffffffffffff1673ffffffffffffffffffffffffffffffffffffffff16815260200190815260200160002060008201518160000190816110929190612018565b5060208201518160010190816110a89190612018565b5060408201518160020190805190602001906110c5929190611353565b50905050600060405180606001604052808581526020018481526020013373ffffffffffffffffffffffffffffffffffffffff168152509080600181540180825580915050600190039060005260206000209060030201600090919091909150600082015181600001908161113a9190612018565b5060208201518160010190816111509190612018565b5060408201518160020160006101000a81548173ffffffffffffffffffffffffffffffffffffffff021916908373ffffffffffffffffffffffffffffffffffffffff1602179055505050505050565b60606111aa82610444565b6111e9576040517f08c379a00000000000000000000000000000000000000000000000000000000081526004016111e0906122f2565b60405180910390fd5b600260008373ffffffffffffffffffffffffffffffffffffffff1673ffffffffffffffffffffffffffffffffffffffff168152602001908152602001600020600001805461123690611dd8565b80601f016020809104026020016040519081016040528092919081815260200182805461126290611dd8565b80156112af5780601f10611284576101008083540402835291602001916112af565b820191906000526020600020905b81548152906001019060200180831161129257829003601f168201915b50505050509050919050565b60008173ffffffffffffffffffffffffffffffffffffffff168373ffffffffffffffffffffffffffffffffffffffff16101561132157828260405160200161130492919061235a565b60405160208183030381529060405280519060200120905061134d565b818360405160200161133492919061235a565b6040516020818303038152906040528051906020012090505b92915050565b82805482825590600052602060002090601f016020900481019282156113f85791602002820160005b838211156113c957835183826101000a81548160ff021916908360058111156113a8576113a7612386565b5b0217905550926020019260010160208160000104928301926001030261137c565b80156113f65782816101000a81549060ff02191690556001016020816000010492830192600103026113c9565b505b5090506114059190611409565b5090565b5b8082111561142257600081600090555060010161140a565b5090565b6000604051905090565b600080fd5b600080fd5b6000819050919050565b61144d8161143a565b811461145857600080fd5b50565b60008135905061146a81611444565b92915050565b60006020828403121561148657611485611430565b5b60006114948482850161145b565b91505092915050565b600081519050919050565b600082825260208201905092915050565b60005b838110156114d75780820151818401526020810190506114bc565b60008484015250505050565b6000601f19601f8301169050919050565b60006114ff8261149d565b61150981856114a8565b93506115198185602086016114b9565b611522816114e3565b840191505092915050565b600073ffffffffffffffffffffffffffffffffffffffff82169050919050565b60006115588261152d565b9050919050565b6115688161154d565b82525050565b6000606082019050818103600083015261158881866114f4565b9050818103602083015261159c81856114f4565b90506115ab604083018461155f565b949350505050565b6115bc8161154d565b81146115c757600080fd5b50565b6000813590506115d9816115b3565b92915050565b6000602082840312156115f5576115f4611430565b5b6000611603848285016115ca565b91505092915050565b60008115159050919050565b6116218161160c565b82525050565b600060208201905061163c6000830184611618565b92915050565b600061164d8261152d565b9050919050565b61165d81611642565b811461166857600080fd5b50565b60008135905061167a81611654565b92915050565b60006020828403121561169657611695611430565b5b60006116a48482850161166b565b91505092915050565b600060408201905081810360008301526116c781856114f4565b905081810360208301526116db81846114f4565b90509392505050565b600081519050919050565b600082825260208201905092915050565b6000819050602082019050919050565b6117198161154d565b82525050565b6117288161143a565b82525050565b600082825260208201905092915050565b600061174a8261149d565b611754818561172e565b93506117648185602086016114b9565b61176d816114e3565b840191505092915050565b60006060830160008301516117906000860182611710565b5060208301516117a3602086018261171f565b50604083015184820360408601526117bb828261173f565b9150508091505092915050565b60006117d48383611778565b905092915050565b6000602082019050919050565b60006117f4826116e4565b6117fe81856116ef565b93508360208202850161181085611700565b8060005b8581101561184c578484038952815161182d85826117c8565b9450611838836117dc565b925060208a01995050600181019050611814565b50829750879550505050505092915050565b6000602082019050818103600083015261187881846117e9565b905092915050565b6118898161143a565b82525050565b600060a0820190506118a46000830188611880565b81810360208301526118b681876114f4565b905081810360408301526118ca81866114f4565b90506118d96060830185611880565b6118e6608083018461155f565b9695505050505050565b60006020820190506119056000830184611880565b92915050565b600081519050919050565b600082825260208201905092915050565b6000819050602082019050919050565b60006060830160008301518482036000860152611954828261173f565b9150506020830151848203602086015261196e828261173f565b91505060408301516119836040860182611710565b508091505092915050565b600061199a8383611937565b905092915050565b6000602082019050919050565b60006119ba8261190b565b6119c48185611916565b9350836020820285016119d685611927565b8060005b85811015611a1257848403895281516119f3858261198e565b94506119fe836119a2565b925060208a019950506001810190506119da565b50829750879550505050505092915050565b60006020820190508181036000830152611a3e81846119af565b905092915050565b600080fd5b600080fd5b7f4e487b7100000000000000000000000000000000000000000000000000000000600052604160045260246000fd5b611a88826114e3565b810181811067ffffffffffffffff82111715611aa757611aa6611a50565b5b80604052505050565b6000611aba611426565b9050611ac68282611a7f565b919050565b600067ffffffffffffffff821115611ae657611ae5611a50565b5b611aef826114e3565b9050602081019050919050565b82818337600083830152505050565b6000611b1e611b1984611acb565b611ab0565b905082815260208101848484011115611b3a57611b39611a4b565b5b611b45848285611afc565b509392505050565b600082601f830112611b6257611b61611a46565b5b8135611b72848260208601611b0b565b91505092915050565b60008060408385031215611b9257611b91611430565b5b600083013567ffffffffffffffff811115611bb057611baf611435565b5b611bbc85828601611b4d565b925050602083013567ffffffffffffffff811115611bdd57611bdc611435565b5b611be985828601611b4d565b9150509250929050565b600067ffffffffffffffff821115611c0e57611c0d611a50565b5b602082029050602081019050919050565b600080fd5b60068110611c3157600080fd5b50565b600081359050611c4381611c24565b92915050565b6000611c5c611c5784611bf3565b611ab0565b90508083825260208201905060208402830185811115611c7f57611c7e611c1f565b5b835b81811015611ca85780611c948882611c34565b845260208401935050602081019050611c81565b5050509392505050565b600082601f830112611cc757611cc6611a46565b5b8135611cd7848260208601611c49565b91505092915050565b600080600060608486031215611cf957611cf8611430565b5b600084013567ffffffffffffffff811115611d1757611d16611435565b5b611d2386828701611b4d565b935050602084013567ffffffffffffffff811115611d4457611d43611435565b5b611d5086828701611b4d565b925050604084013567ffffffffffffffff811115611d7157611d70611435565b5b611d7d86828701611cb2565b9150509250925092565b60006020820190508181036000830152611da181846114f4565b905092915050565b7f4e487b7100000000000000000000000000000000000000000000000000000000600052602260045260246000fd5b60006002820490506001821680611df057607f821691505b602082108103611e0357611e02611da9565b5b50919050565b7f4e487b7100000000000000000000000000000000000000000000000000000000600052601160045260246000fd5b6000611e438261143a565b9150611e4e8361143a565b9250828201905080821115611e6657611e65611e09565b5b92915050565b60008190508160005260206000209050919050565b60006020601f8301049050919050565b600082821b905092915050565b600060088302611ece7fffffffffffffffffffffffffffffffffffffffffffffffffffffffffffffffff82611e91565b611ed88683611e91565b95508019841693508086168417925050509392505050565b6000819050919050565b6000611f15611f10611f0b8461143a565b611ef0565b61143a565b9050919050565b6000819050919050565b611f2f83611efa565b611f43611f3b82611f1c565b848454611e9e565b825550505050565b600090565b611f58611f4b565b611f63818484611f26565b505050565b5b81811015611f8757611f7c600082611f50565b600181019050611f69565b5050565b601f821115611fcc57611f9d81611e6c565b611fa684611e81565b81016020851015611fb5578190505b611fc9611fc185611e81565b830182611f68565b50505b505050565b600082821c905092915050565b6000611fef60001984600802611fd1565b1980831691505092915050565b60006120088383611fde565b9150826002028217905092915050565b6120218261149d565b67ffffffffffffffff81111561203a57612039611a50565b5b6120448254611dd8565b61204f828285611f8b565b600060209050601f8311600181146120825760008415612070578287015190505b61207a8582611ffc565b8655506120e2565b601f19841661209086611e6c565b60005b828110156120b857848901518255600182019150602085019450602081019050612093565b868310156120d557848901516120d1601f891682611fde565b8355505b6001600288020188555050505b505050505050565b60006120f58261143a565b91507fffffffffffffffffffffffffffffffffffffffffffffffffffffffffffffffff820361212757612126611e09565b5b600182019050919050565b6000819050919050565b600061215761215261214d84612132565b611ef0565b61143a565b9050919050565b6121678161213c565b82525050565b600060a0820190506121826000830188611880565b818103602083015261219481876114f4565b905081810360408301526121a881866114f4565b90506121b7606083018561215e565b6121c4608083018461155f565b9695505050505050565b7f5573657220657869737473000000000000000000000000000000000000000000600082015250565b6000612204600b836114a8565b915061220f826121ce565b602082019050919050565b60006020820190508181036000830152612233816121f7565b9050919050565b7f4e616d6520726571756972656400000000000000000000000000000000000000600082015250565b6000612270600d836114a8565b915061227b8261223a565b602082019050919050565b6000602082019050818103600083015261229f81612263565b9050919050565b7f55736572206973206e6f74207265676973746572656400000000000000000000600082015250565b60006122dc6016836114a8565b91506122e7826122a6565b602082019050919050565b6000602082019050818103600083015261230b816122cf565b9050919050565b60008160601b9050919050565b600061232a82612312565b9050919050565b600061233c8261231f565b9050919050565b61235461234f8261154d565b612331565b82525050565b60006123668285612343565b6014820191506123768284612343565b6014820191508190509392505050565b7f4e487b7100000000000000000000000000000000000000000000000000000000600052602160045260246000fdfea2646970667358221220c65f1f829450527dc24b5bc47a68f186cbca915f40bdd2ccc63ab4e68e8ace8364736f6c63430008110033",
  "linkReferences": {},
  "deployedLinkReferences": {}
}